:0400000078EF0BF09A
:1000080000C01AF001C019F002C018F003C017F0C0
:1000180004C016F005C015F0E1CF21F0E2CF22F0C0
:10002800E9CF1FF0EACF20F0F5CF1EF0F8CF1BF094
:10003800F7CF1CF0F6CF1DF0BBEC0AF01EC0F5FFA1
:100048001BC0F8FF1CC0F7FF1DC0F6FF1AC000F068
:1000580019C001F018C002F017C003F016C004F070
:1000680015C005F01FC0E9FF20C0EAFF21C0E1FF6D
:0600780022C0E2FF1100AE
:10007E00000E056E040E066E8BC003F0000E046EAD
:10008E000336043603900336043603908CC000F01A
:10009E00000E016E0036013600900050032601500E
:1000AE00042203C001F004C002F0013601900236B2
:1000BE0001360190023601C003F002C004F0043292
:1000CE000332049E04BC048E04320332049E04BC2C
:1000DE00048E03C000F004C001F00036009001361B
:1000EE00003600900136055000260650012200C051
:1000FE0005F001C006F000C0E1FF01C0E2FFE69E80
:10010E0000018C51000A12E18BC000F0000E016E4E
:10011E00003600900136290E0024E16E000E0120FB
:10012E00E26E05C0E6FF06C0E6FF11D08BC000F000
:10013E00000E016E003600900136470E0024E16E6F
:10014E00000E0120E26E05C0E6FF06C0E6FF05C008
:10015E00E1FF06C0E2FFE69C040E0524E16E000EF0
:08016E000620E26EE68C12008F
:0E017600800E00018B11006E00C03DF01200E3
:100184008BC03AF08CC03BF08DC03EF08EC03FF087
:10019400800E00018F11006E008000C03DF012003F
:1001A4008BC03AF08CC03BF08DC03CF08EC03EF06A
:1001B4008FC03FF0800E00019011006E00C03DF032
:0201C400120027
:1001C60020C401F01F0E01160150010A01E08BD078
:1001D60004012451000A01E086D02151060A38E1C3
:1001E6002DD05850010A13E14A0E00018B6F170EED
:1001F6008C6F000E8D6F120E8B27000E8C238D23B5
:10020600090E8E6F000E8F6F400E906FC8DF20D0E4
:100216005850010A0EE10001BB0E8B6F170E8C6F52
:10022600000E8D6F210E8E6F000E8F6F400E906F39
:10023600B6DF0ED000018B6B9BDF0AD00401235181
:10024600210ACFE02351220AE3E02351230AF2E0F8
:1002560020C401F0600E0116050E006E005004E089
:100266000132019EFF0FFBD70150010A01E03BD08E
:1002760027D039D038D0600E00018B6F000E8C6FFE
:10028600010E8D6F000E8E6F400E8F6F78DF2BD0B4
:1002960000018B6B6DDF23C460F025D000016B0E6F
:1002A6008B6F000E8C6F010E8D6F000E8E6F8F6B35
:1002B60066DF19D000018B6B5BDF22C46BF013D0B5
:1002C60004012151010AD5E02151090AD3E0215147
:1002D600020AD1E021510A0ADBE02151030ADEE0DD
:0802E60021510B0AE7E01200B0
:1002EE00700EE16E0F0EE26E00018651E126D8B05F
:1002FE00E22A87C0E6FF87A504D086C08BF08C6B00
:10030E00B7DE87A305D086C08BF0010E8C6FB0DEF2
:02031E001200CB
:1003200000018751000A12E086C000F0000E016E45
:10033000003600900136470E0024E96E000E0120C1
:10034000EA6EEECF04F0EECF05F011D086C000F0DB
:10035000000E016E003600900136290E0024E96E71
:10036000000E0120EA6EEECF04F0EECF05F0020E93
:100370000424E16E000E0520E26E88C0E6FF89C00D
:10038000E6FF010E0424E16E000E0520E26E8AC035
:10039000E6FF04C0E9FF05C0EAFFEECF00F004C0AD
:1003A000E1FF05C0E2FF400E0014E66E04C0E9FF65
:1003B00005C0EAFFEECF00F004C0E1FF05C0E2FF98
:1003C000880E0010E66E8751000A1BE086C000F020
:1003D000000E016E003600900136470E0024026EBA
:1003E000000E0120036E02C0E9FF03C0EAFF040E05
:1003F000EE18006E02C0E1FF03C0E2FF00C0E6FF9E
:100400001AD086C000F0000E016E00360090013652
:10041000290E0024026E000E0120036E02C0E9FFC7
:1004200003C0EAFF040EEE18006E02C0E1FF03C035
:10043000E2FF00C0E6FF04C000F005C001F01200BA
:100440005F5215E0010E0001866F1E0E876F4FDFB1
:10045000010E866F876B65C088F066C089F0400E1C
:100460008A6F5EDF00C040F001C041F014D000018F
:10047000010E866F1E0E876F3ADF010E866F876B47
:1004800065C088F066C089F0400E8A6F49DF00C001
:0804900040F001C041F0120030
:080498005F5201E094DE120046
:1004A00080C002F081C003F083C000F084C001F07E
:1004B000010E0001835F000E845B0050011009E013
:1004C00002C0E1FF03C0E2FF82C0E6FF024A032A46
:0404D000EBD7120054
:1004D4000CD0B4DF3CD03BD0DDDF39D038D037D0BE
:1004E40036D035D0000033D032D0000E000181194F
:1004F40002E1010E8019EDE0000E811902E1020E05
:100504008019E9E0000E811902E1030E8019E4E08C
:100514008151000A02E1730E8019E0E08151000A62
:1005240002E1750E8019DBE08151000A02E1740ECC
:100534008019D6E081513F0A02E1FF0E8019D1E013
:100544008151000A02E1720E8019CCE0CDD7010E70
:04055400006E120023
:100558000B6A0A6A096A00500402F4CF09F0F3CF63
:1005680008F001500502F4CF0BF0F3CF0AF0005069
:100578000502F3500926F4500A22E86A0B220150BA
:100588000402F3500926F4500A22E86A0B2208C034
:1005980000F009C001F00AC002F00BC003F012001D
:1005A8000401286B296B42D03D8E28815C50010ADA
:1005B800D8B4288350D03D8E4ED03D8E24BF16D05F
:1005C80024C403F00F0E031603C000F0000E016EE2
:1005D800003600900136290E0024E96E000E012035
:1005E800EA6EEECF04F0EECF05F015D024C403F088
:1005F8000F0E031603C000F0000E016E00360090C7
:100608000136470E0024E96E000E0120EA6EEECF97
:1006180004F0EECF05F004C0E9FF05C0EAFFEECF15
:1006280001F001A402D0010E286F15D020C401F0FA
:100638001F0E01160150000AB7E020C401F01F0E7A
:1006480001160150010AB7E020C401F01F0E01167F
:100658000150020AB2E03DAE07D0280E3A6E040EF1
:0A0668003B6E3D80020E3E6E120054
:10067200F250026EF29E0500FF6A0150FE6E0050BB
:08068200FD6E02BEF28E1200B3
:10068A00000E3F5C02E1080E3E5C10E23EC003F041
:10069A003FC004F05950000A03E1010E596E05D01B
:1006AA005950010A02E1020E596E04D0080E036E77
:1006BA00000E046E47C0E1FF48C0E2FFE69247C061
:1006CA00E1FF48C0E2FFE69047C0E9FF48C0EAFF01
:1006DA00EECF00F047C0E1FF48C0E2FF045000102F
:1006EA00E66E010E4724E16E000E4820E26E03C05A
:1006FA00E6FF03503E5C006E04503F58016E00C096
:10070A003EF001C03FF0280E0001616F040E626FD7
:10071A003DB02FD0035004102BE03AC0F6FF3BC087
:10072A00F7FF3CC0F8FF0900F5CF00F061C0E1FF18
:10073A0062C0E2FF00C0E6FF614B622B010E3A2461
:10074A00006E000E3B20016E000E3C20026E00C0BF
:10075A003AF001C03BF002C03CF0010E035C006EAF
:10076A00000E0458016E00C003F001C004F0D2D795
:10077A0024D00350041021E03AC0E9FF3BC0EAFF4D
:10078A0061C0E1FF62C0E2FFEECFE6FF614B622B80
:10079A00010E3A24006E000E3B20016E00C03AF0B2
:1007AA0001C03BF0010E035C006E000E0458016E9E
:0C07BA0000C003F001C004F0DCD7120006
:1007C60004012251010A0FE120C401F01F0E011697
:1007D6000150000A08E13D8E2151030A03E1010E92
:1007E6005C6E01D05C6A2251000AD8A489D020C46C
:1007F60001F01F0E01160150020AD8A481D024C4AC
:1008060001F00F0E01160150000AD8B479D03D8EC2
:1008160024BF16D024C403F00F0E031603C000F045
:10082600000E016E003600900136290E0024E96E96
:10083600000E0120EA6EEECF04F0EECF05F015D0E3
:1008460024C403F00F0E031603C000F0000E016E61
:10085600003600900136470E0024E96E000E012096
:10086600EA6EEECF04F0EECF05F02151030A07E160
:1008760004C0E1FF05C0E2FF840EE66E41D024C449
:1008860000F00F0E0016700E026E0F0E036E005073
:100896000226D8B0032A02C0E9FF03C0EAFFEECF62
:1008A60000F0EECF01F0009002C0E1FF03C0E2FFCE
:1008B60000C0E6FF01C0E6FF24AF11D004C0E1FF8F
:1008C60005C0E2FFE66A040E0418006E00C004F0DC
:1008D60004C0E1FF05C0E2FF400EE66E11D004C081
:1008E600E1FF05C0E2FF880EE66E040E0418006EF6
:1008F60000C004F004C0E1FF05C0E2FFC80EE66ECA
:020906001200DD
:1009080004012051800AD8A471D0C00E3D6E64D075
:10091800DC0E006E170E016E000E026E00C03AF07B
:1009280001C03BF002C03CF0120E3E6E000E3F6E5E
:100938005DD0030E006E000E016E22C404F0000E9E
:10094800056E06DE440E0024E96E000E0120EA6EF4
:10095800EECF3AF0EECF3BF0EECF3CF0020E3A2469
:10096800F66E000E3B20F76E000E3C20F86E090074
:10097800F5CF00F00900F5CF01F000C03EF001C04E
:100988003FF034D0030E225D23E2030E006E000E0A
:10099800016E22C404F0000E056EDADD4F0E00244D
:1009A800E96E000E0120EA6EEECF3AF0EECF3BF092
:1009B800EECF3CF03AC0F6FF3BC0F7FF3CC0F8FF73
:1009C8000900F5CF00F000C03EF0000E3F6E01D0E8
:1009D8003D6A0CD03D6A0AD02351010A99E023519F
:0E09E800020AA7E02351030ACDE0F4D7120063
:1009F6003D8E710E0001806F0F0E816F826B010EAE
:100A0600836F000E846F49DD5D0E806F000E816F6F
:100A1600826B010E836F000E846F3FDD22C458F097
:100A26005850000A03E1100E286E0FD0200E286ED3
:100A3600010E806F000E816F580E826F000E836F5D
:0C0A4600010E846F000E856F42DD12006F
:100A52006D983DBE4BD033AE29D0020E5B6E010EB7
:100A62004724E16E000E4820E26EE66A47C0E1FFCD
:100A720048C0E2FFC80EE66E010E00016725E16E76
:100A8200000E6821E26E080EE66E020E6725E16E28
:100A9200000E6821E26E280EE66E040EE66E67C056
:100AA200E1FF68C0E2FFC80EE66E1FD00001010E32
:100AB2006725E16E000E6821E26E080EE66E020EF8
:100AC2006725E16E000E6821E26E200EE66E040ECE
:100AD200E66E67C0E1FF68C0E2FF8C0EE66E47C0BB
:100AE200E1FF48C0E2FF840EE66E7FD033BE7DD0C8
:100AF200040120AF52D03F50275D02E13E50265DF7
:100B020004E226C43EF027C43FF0BEDD010E5B6E58
:100B1200010E00016725E16E000E6821E26E080EEB
:100B2200E66E020E6725E16E000E6821E26E200E6F
:100B3200E66E040EE66E67C0E1FF68C0E2FF800E5B
:100B4200E66E5A6A010E6925E16E000E6A21E26EB6
:100B5200080EE66E020E6925E16E000E6A21E26E53
:100B6200200EE66E040EE66E69C0E1FF6AC0E2FF87
:100B7200840EE66E010E5A6E020E4724E16E000EDE
:100B82004820E26E280EE66E040EE66E47C0E1FFD4
:100B920048C0E2FFC80EE66E28D00001020E5B6E6E
:100BA200010E4724E16E000E4820E26EE66A47C05D
:100BB200E1FF48C0E2FFC80EE66E010E6725E16E56
:100BC200000E6821E26E080EE66E020E6725E16EE7
:100BD200000E6821E26E280EE66E040EE66E67C015
:0C0BE200E1FF68C0E2FFC80EE66E1200E2
:100BEE0020C401F0600E0116050E006E005004E0E8
:100BFE000132019EFF0FFBD70150000A01E062D0C7
:100C0E003ED03D8E080E286E5DD077DE5BD0ECDEDA
:100C1E0059D0580E3A6E000E3B6E3D80010E3E6E60
:100C2E003D8E50D0BADC4ED0C7DD4CD05D0E006E7E
:100C3E00000E016E24510026D8B0012A00C03AF0F1
:100C4E0001C03BF03D80010E3E6E3D8E3BD03D8E91
:100C5E005D0EE16E000EE26E2451E126D8B0E22A5E
:100C6E0022C4E6FF2FD0020E0001806F000E816FAE
:100C7E00826B836B846B856B26DC24D023D00401BE
:100C8E002151050ABEE02151060ABFE02151090A91
:100C9E00BEE02151080ABDE02151000AC3E02151F6
:100CAE00010AC2E02151030ABFE021510A0ABEE047
:100CBE0021510B0ACCE02151070AD5E021510C0A33
:060CCE00DDE0DCD712009E
:100CD400010E00016925E96E000E6A21EA6EEECF6D
:100CE40000F000C07EF0000E355C02E17E51345C01
:100CF40003E234C07EF00AD07E51345C006E000EF4
:100D04003558016E00C034F001C035F07F6B7E5160
:100D14007F5D1CE2280EE96E040EEA6E7F51E9261F
:100D2400D8B0EA2AEECF00F031C0E1FF32C0E2FFD2
:100D340000C0E6FF010E3124006E000E3220016E69
:100D440000C031F001C032F07F2BE1D7000E006EFD
:100D54003550005C02E13450000828E2010E67259A
:100D6400E16E000E6821E26E080EE66E020E672543
:100D7400E16E000E6821E26E280EE66E040EE66E49
:100D840069C0E9FF6AC0EAFFEECF00F000BC07D0FB
:100D940067C0E1FF68C0E2FFC80EE66E06D067C018
:100DA400E1FF68C0E2FF880EE66E2BD0010E6725D6
:100DB400E16E000E6821E26E080EE66E020E6725F3
:100DC400E16E000E6821E26E200EE66E040EE66E01
:100DD40067C0E1FF68C0E2FF840EE66E000E006E9D
:100DE400391808E10050381805E10050371802E1BD
:100DF4003650000A05E036C000F037C001F037DC99
:040E0400339E120007
:100E08005B6A47C0E1FF48C0E2FFE66A040E471884
:100E1800E16E48C0E2FF000EE21AE66A33AE13D074
:100E2800000E006E391808E10050381805E100502E
:100E3800371802E13650000A05E036C000F037C026
:080E480001F013DC339E1200DF
:0A0E5000D08EA28AA08AF28E120052
:100E5A0076C002F077C003F079C000F07AC001F0E2
:100E6A00010E0001795F000E7A5B0050011009E063
:100E7A0002C0E1FF03C0E2FF78C0E6FF024A032A8C
:040E8A00EBD7120090
:100E8E00000E0001771902E1000E761902E1016AE7
:100E9E0009D076C0E9FF77C0EAFFEECF00F0016A15
:0A0EAE0000BE012A01C000F012008E
:100EB80000017751000A12E076C000F0000E016EC2
:100EC800003600900136470E0024E96E000E01201E
:100ED800EA6EEECF04F0EECF05F011D076C000F048
:100EE800000E016E003600900136290E0024E96ECE
:100EF800000E0120EA6EEECF04F0EECF05F0020EF0
:100F08000424E16E000E0520E26E78C0E6FF79C089
:100F1800E6FF010E0424E16E000E0520E26E7AC0A1
:100F2800E6FF04C0E9FF05C0EAFFEECF00F004C009
:100F3800E1FF05C0E2FF400E0014E66E04C0E9FFC1
:100F480005C0EAFFEECF00F004C0E1FF05C0E2FFF4
:100F5800880E0010E66E7751000A1BE076C000F09C
:100F6800000E016E003600900136470E0024026E16
:100F7800000E0120036E02C0E9FF03C0EAFF040E61
:100F8800EE18006E02C0E1FF03C0E2FF00C0E6FFFA
:100F98001AD076C000F0000E016E003600900136BF
:100FA800290E0024026E000E0120036E02C0E9FF24
:100FB80003C0EAFF040EEE18006E02C0E1FF03C092
:100FC800E2FF00C0E6FF04C000F005C001F0120017
:0E0FD800160E6F6E9F0E6B6E7B0E696E120012
:100FE6004A0E446E170E456E000E466EEE0E4F6E9E
:100FF600170E506E000E516E990E526E170E536EEE
:10100600000E546E730E556E170E566E000E576E0A
:021016001200C6
:10101800200E285C03E36DB201D002D0006A33D001
:1010280026C076F027C077F02EDF00522BE175C07E
:1010380076F0010E776F72C078F073C079F074C0E3
:101048007AF036DF00C026F001C027F02D6A2E6A3C
:101058002F6A306A26C076F027C077F014DF005276
:1010680008E02D502E102F10301002E0006A0BD02F
:10107800F1D7010E2624E96E000E2720EA6EEECF86
:0810880000F001D0006A120023
:10109000AADF406A416A266A276A6A6A686A9CDF30
:1010A0006D8C6E6A710E0001766F0F0E776F786B24
:1010B000010E796F000E7A6FD0DE6D9C726B080E98
:1010C000725D16E272C000F0000E016E00360090F4
:1010D0000136003600900136000E0024E16E040E49
:1010E0000120E26EE66AE66AE66AE66A722BE7D7F4
:1010F000160E706E68A603D0F70E6816FBD73D6A11
:10110000336A346A356A6D98080E476E040E486E6D
:06111000586A286A120073
:101116002850000A0AE16D6A696A5BDF96DE6DB6E1
:0C11260002D06D86FCD7010E286E12006E
:1011320047C0E9FF48C0EAFFEECF00F000AE05D09D
:1011420047C0E1FF48C0E2FFE66A596A5B6A3E6A4D
:101152003F6A3D6A4BDD030E0001806F000E816F16
:10116200826B836B846B856B6AEC02F071DC12001C
:1011720047C0E9FF48C0EAFFEECF00F0000E00BC16
:10118200010E00017D6F040E4718006E00C047F08B
:101192002850080A0AE122C46EFF6E50000803E2DA
:1011A200100E286E02D0040E286E5B50010A2CE14C
:1011B200020E4724E16E000E4820E26E280E006EF9
:1011C200040E016E00C0E6FF01C0E6FF45EC03F02D
:1011D2005950020A07E147C0E1FF48C0E2FF840E0E
:1011E200E66E11D000017D51000A07E147C0E1FF20
:1011F20048C0E2FFC80EE66E06D047C0E1FF48C015
:0C120200E2FF880EE66E01D0FEDD120057
:10120E005B50020A02E15FDD1FD0F7DD5A50000A83
:10121E001AE1010E00016725E16E000E6821E26EF3
:10122E00080EE66E020E6725E16E000E6821E26E74
:10123E00200EE66E040EE66E67C0E1FF68C0E2FFA8
:0A124E008C0EE66E01D05A6A120001
:10125800016A400E015C0BE2400EE16E050EE26E83
:101268000150E126D8B0E22AE66A012AF2D73E0EFA
:061278000501406F1200A9
:10127E00C20E4B6E160E4C6E6C0E4D6E000E4E6EFA
:0C128E00C26A070EC012C08EC28012009F
:10129A006EC072F06FC073F070C074F0010E00017E
:0612AA00756FB5DE1200B5
:0E12B000570E0D6E0D2EFED70000000012002E
:1012BE00010E5F6E6EC065F06FC066F070C063F0B9
:1012CE0071C064F0DEDE010E016E0150010A01E113
:0412DE001BDF120000
:0412E200A19A1200BB
:1012E6006984EF0E68166D82750E0001806F000E20
:1012F600816F826B836B846B856B6AEC02F01200E4
:1013060070A019D069C0E9FF6AC0EAFFEECF01F00C
:101316000150800A0FE147C0E9FF48C0EAFFEECF5F
:1013260001F00150840A06E169C0E1FF6AC0E2FFEC
:0C1336008C0EE66E7090DF0E6816120040
:10134200FD0E5E14016E026AFF0E0216000E0218F6
:1013520002E1000E01186CE17E0E5E14016E01C006
:1013620003F00332039E03C000F0000E016E00364C
:1013720000900136003600900136000E0024026E05
:10138200040E0120036E02C069F003C06AF002C0BD
:1013920067F003C068F0040E00016719006E00C018
:1013A20067F002C0E9FF03C0EAFFEECF00F000C021
:1013B20001F03C0E01160132019E0132019E0150E4
:1013C2000D0A34E1020E6925E96E000E6A21EA6E09
:1013D200EECF01F0EECF02F00250040A02E1280E35
:1013E200011822E1020E6925E16E000E6A21E26E09
:1013F200200EE66E040EE66E7C6B080E7C5D14E237
:10140200200EE16E040EE26E7C51E126D8B0E22A93
:10141200280EE96E040EEA6E7C51E926D8B0EA2A5B
:10142200EECFE6FF7C2BE9D783DE01D0EFDE0DD0D5
:10143200FD0E5E14016E026AFF0E0216000E021805
:0C14420002E1040E011801E193DE12002B
:10144E00740E0001806F000E816F826B836B846B54
:10145E00856B6AEC02F06D92699468A403D0FB0E62
:06146E006816FBD7120016
:10147400B8DD406A416A266A276A6A6A686AAADD30
:101484006D8C6E6A710E0001806F0F0E816F826B1E
:10149400010E836F000E846F50EC02F06D9C7C6B28
:1014A400080E7C5D16E27CC000F0000E016E003672
:1014B40000900136003600900136000E0024E16EE3
:1014C400040E0120E26EE66AE66AE66AE66A7C2BAE
:1014D400E7D7160E706E68A603D0F70E6816FBD712
:1014E4003D6A336A346A356A6D98080E476E040E95
:0814F400486E586A286A1200D4
:1014FC000900F5CFE6FF0006FBE10106F9E1120059
:10150C00A5DE000E00016E6F050E6F6F400E706F42
:10151C00050E716FCEDEADDEF16A0E0EC16E816A04
:10152C000F0E936E806A010E926E9C0E0C6ED70E8F
:0C153C000D6E0D2EFED70C2EFCD71200F9
:10154800800E00016D19006E800E005C02E1000E35
:101558006C5D08E26C510008006E6DC001F0000E71
:0E156800015604D06CC000F06DC001F01200FE
:101576002850010A07E16DBA05D0686A6980698852
:10158600020E286E68A405D069A403D0FB0E681667
:101596005BDF6DA202D0A2DE78D068A018D069A069
:1015A60016D065DF040E286E200E0401026F040EAD
:1015B600036F080E016F000E0015006E00C000F4E8
:1015C6008C0E0011006E00C000F4FE0E681668A8AE
:1015D60005D069A803D084DEEF0E681668AC11D07A
:1015E60069AC0FD0730E0001806F000E816F826BA5
:1015F600836B010E846F000E856F6AEC02F0BF0EDE
:10160600681668AA03D069AA01D07ADE68A210D04B
:1016160069A20ED0FF0E0001806F3F0E816F826BB4
:10162600836B010E846F000E856F6AEC02F06A6AA6
:10163600040E285C02E252DE28D069A625D00001FD
:101646007B6B040E7B5D20E268A61AD06CCF5EF041
:10165600F70E6816780E5E14016E0150000A02E15C
:101666006DDE0DD0720E0001806F000E816F5E0E72
:10167600826F000E836F846B856B6AEC02F001D07B
:0C16860003D000017B2BDDD729DE120011
:1016920025C041F5FF0E42140501426F43C000F020
:1016A200016A00C043F5400E00016E6F050E6F6FB8
:1016B200400E706FF1DD005201E1F5D7000012001B
:1016C200C30EC2166CC000F00036009000360090C7
:1016D2000050C212ECDDC282C2A201D0FDD7C4CF3B
:0E16E20001F0006AC3500012000E0112120047
:1016F000236A246A256A0ADF00016C6BE2DF00C0FE
:1017000042F001C043F00F0E8114016E2550011804
:1017100012E12350425C00016C6F245043586D6FFE
:1017200013DF800E026E800E0118025C02E1005091
:10173000050801E308D00F0E8114256E42C023F086
:0A17400043C024F0A6DFD8D7FFD77E
:10174A000902290001010080320904000002030095
:10175A00000009210101000122210007058103403F
:09176A0000010705010340000124
:10177300260355006E0069007400790033004400AD
:10178300200043006F006E00740072006F006C0055
:061793006C00650072000D
:101799002203440069006C007300680061006E0058
:1017A90020004A006100790061006B006F0064004D
:0217B9007900B5
:1017BB000600FF0901A10119012940150026FF00B0
:1017CB0075089540810219012940750895409102D1
:0117DB00C04D
:1017DC0012010002000000086284040001000102F2
:0217EC000001FA
:0417EE0004030904E3
:020000040030CA
:0E000000240E3F1EFF0381FF0FC00FE00F40D4
:00000001FF
